# Bitcoin Transaction Decoder for Charms

## Task Overview

Create a modular script to decode Bitcoin transactions containing Charms data. The script should extract and parse the embedded CBOR data to reveal charm information.

## Core Process

1. **Extract Spell Data**: Find and extract the spell data from the transaction witness (located in the second element of the second input's witness, after "OP_IF spell" marker)
2. **Decode CBOR**: Parse the CBOR-encoded data
3. **Extract Charm Information**: Identify and extract charm details from the decoded data

## Technical Requirements

- Keep code modular and concise (files under 200 lines)
- Extract all data directly from the transaction (no hardcoded values)
- Implement minimal, clear logging for debugging
- Focus on simplicity and readability

## Key Implementation Notes

- Spell data is found in transaction witness data after the "OP_IF spell" marker
- CBOR decoder must handle nested arrays and objects properly
- Charm data can appear as direct numbers or as objects with ticker/remaining properties
- The structure must extract apps, ins, and outs correctly

The goal is to create the simplest possible implementation that correctly decodes charm data from Bitcoin transactions.


---------------------------------

REAL DATA TO USE IN THE SCRIPT. Add the raw data and expected results into separate scripts so those are not mixed with sourcecode and we can speed up development and reduce prompts size.

b getrawtransaction 9c048eca509e609f81a5024930f1e793b3ab82ce953b025e0d4d0a0c342a5b1a
02000000000102ddaabd5f68992d3a97ec3f7f4a553b80f40811b1cc7dcaa4c3d4d57a42c903440000000000ffffffff9ce50d1bea2cb80b38a63e5e2e29e4efd9d4c9da15f1a73b11415ceecb1a351d0000000000ffffffff03e8030000000000002251208c821ceda66308fedf5283f5aaac2f3b1c17b529d983e2f1734794037beec335e8030000000000002251206eb2ec4ab68e29176884e783dfd93bc42b9310f5ae47a202d0978988cebe1f87f673000000000000225120d2c2385fdea0d44dc25b67caf4aef4c711dea2a72b40a43cce34d82e601a78de01402f13c070c4c4a10019d4814b3939befb87d59b376f645c8416a7e3a71c006b6decf0335476f9c4c34b68aea56bd00d6a47d7a6374060254d3431a8cf7182eac70341a65486322df7d3205fd81d3afcb39fef631edc855e1b15a666d9aa2f8998cb1fa094fbccdb7b6e1b44d7fc753e9ebdb78736b08bcfbde4f67a2a234f60b23b9e81fd78030063057370656c6c4d080282a36776657273696f6e04627478a2647265667380646f75747382a1011903e6a100a2667469636b657269434841524d532d31396972656d61696e696e671a000182ba716170705f7075626c69635f696e70757473a283616e982018ae07189e1893181e188818ab188818231822182f18ba18ca0a18f518af18fe184302182518470e18a1188a18b8184b18fd182d184318d4183e18cc982018770b18c3183418d418301886183013181817182418d6121843185218d1182f1825182018a7183818e108183b18ac18a8183c189d189718301837f6836174982018ae07189e1893181e188818ab188818231822182f18ba18ca0a18f518af18fe184302182518470e18a1188a18b8184b18fd182d184318d4183e18cc982018770b18c3183418d418301886183013181817182418d6121843185218d1182f1825182018a7183818e108183b18ac18a8183c189d189718301837f699010418a41859184c1859181f18f9186f1618f3187718b218ea183e17189e1518931869189e18241831186a1858189f181918be031821184d188e18361846185118a6184f18e11718fb183b18de181f18ca18371846001893141891183d189118cc18471718aa182318e7187b18f018540618f0185e188118af1873186d18881847182618e6186f18661867183818e618c318c80a18b218f6186818440018b318d818b0183a188f18bc181e18b318fe18ad18d84d3f0116188b0e182c18a3181b0f18b0188c188918f818f1186c18ee18a0187618af18ca18bb18cc18e3189618dd18c9182e18a2188b184918290d181c18671880181e18b6181a187f18df181b18e4186a18de1894184a1845188818aa181f18df1855189918f91889184e186b18bb1846187418cf185618e4187e185218b618b2189d181a18fa18ef18a70218bc18d718f918f718a0188b18b7182018a518b518cd18b614187318aa184318a3184d0618e9189a188a185e0c18d218b618f9184718c11868189a182607187d1818184c182f189a189918941872188118a418d1186e184c18eb182118b818ed0e18ed18a118dd1838187318d6185718e418e8183e18db181e181c18f0182b0f18ba189c183918811849189418191894184b18960c18a71618f2182c185a18ee18b318bd18481856183218b018ab187018b61875186d68203e9999b13a977385f28b44948c997128f3a16c62f7dbe4664010f0061871a9ceac21c13e9999b13a977385f28b44948c997128f3a16c62f7dbe4664010f0061871a9ce00000000


tx_hex=02000000000102ddaabd5f68992d3a97ec3f7f4a553b80f40811b1cc7dcaa4c3d4d57a42c903440000000000ffffffff9ce50d1bea2cb80b38a63e5e2e29e4efd9d4c9da15f1a73b11415ceecb1a351d0000000000ffffffff03e8030000000000002251208c821ceda66308fedf5283f5aaac2f3b1c17b529d983e2f1734794037beec335e8030000000000002251206eb2ec4ab68e29176884e783dfd93bc42b9310f5ae47a202d0978988cebe1f87f673000000000000225120d2c2385fdea0d44dc25b67caf4aef4c711dea2a72b40a43cce34d82e601a78de01402f13c070c4c4a10019d4814b3939befb87d59b376f645c8416a7e3a71c006b6decf0335476f9c4c34b68aea56bd00d6a47d7a6374060254d3431a8cf7182eac70341a65486322df7d3205fd81d3afcb39fef631edc855e1b15a666d9aa2f8998cb1fa094fbccdb7b6e1b44d7fc753e9ebdb78736b08bcfbde4f67a2a234f60b23b9e81fd78030063057370656c6c4d080282a36776657273696f6e04627478a2647265667380646f75747382a1011903e6a100a2667469636b657269434841524d532d31396972656d61696e696e671a000182ba716170705f7075626c69635f696e70757473a283616e982018ae07189e1893181e188818ab188818231822182f18ba18ca0a18f518af18fe184302182518470e18a1188a18b8184b18fd182d184318d4183e18cc982018770b18c3183418d418301886183013181817182418d6121843185218d1182f1825182018a7183818e108183b18ac18a8183c189d189718301837f6836174982018ae07189e1893181e188818ab188818231822182f18ba18ca0a18f518af18fe184302182518470e18a1188a18b8184b18fd182d184318d4183e18cc982018770b18c3183418d418301886183013181817182418d6121843185218d1182f1825182018a7183818e108183b18ac18a8183c189d189718301837f699010418a41859184c1859181f18f9186f1618f3187718b218ea183e17189e1518931869189e18241831186a1858189f181918be031821184d188e18361846185118a6184f18e11718fb183b18de181f18ca18371846001893141891183d189118cc18471718aa182318e7187b18f018540618f0185e188118af1873186d18881847182618e6186f18661867183818e618c318c80a18b218f6186818440018b318d818b0183a188f18bc181e18b318fe18ad18d84d3f0116188b0e182c18a3181b0f18b0188c188918f818f1186c18ee18a0187618af18ca18bb18cc18e3189618dd18c9182e18a2188b184918290d181c18671880181e18b6181a187f18df181b18e4186a18de1894184a1845188818aa181f18df1855189918f91889184e186b18bb1846187418cf185618e4187e185218b618b2189d181a18fa18ef18a70218bc18d718f918f718a0188b18b7182018a518b518cd18b614187318aa184318a3184d0618e9189a188a185e0c18d218b618f9184718c11868189a182607187d1818184c182f189a189918941872188118a418d1186e184c18eb182118b818ed0e18ed18a118dd1838187318d6185718e418e8183e18db181e181c18f0182b0f18ba189c183918811849189418191894184b18960c18a71618f2182c185a18ee18b318bd18481856183218b018ab187018b61875186d68203e9999b13a977385f28b44948c997128f3a16c62f7dbe4664010f0061871a9ceac21c13e9999b13a977385f28b44948c997128f3a16c62f7dbe4664010f0061871a9ce00000000

ricartjuncadella@MacBook-Pro-de-Ricart charms % charms tx show-spell --tx $tx_hex
version: 4
apps:
  $0000: n/ae079e931e88ab8823222fbaca0af5affe430225470ea18ab84bfd2d43d43ecc/770bc334d430863013181724d6124352d12f2520a738e1083baca83c9d973037
  $0001: t/ae079e931e88ab8823222fbaca0af5affe430225470ea18ab84bfd2d43d43ecc/770bc334d430863013181724d6124352d12f2520a738e1083baca83c9d973037
ins:
- utxo_id: 4403c9427ad5d4c3a4ca7dccb11108f4803b554a7f3fec973a2d99685fbdaadd:0
outs:
- charms:
    $0001: 998
- charms:
    $0000:
      ticker: CHARMS-19
      remaining: 99002


-------------------------------------


{
  "txid": "9c048eca509e609f81a5024930f1e793b3ab82ce953b025e0d4d0a0c342a5b1a",
  "hash": "3d97a0f90feb63736e09d4ddaa7ffe9a0ecf8a14a25744d049e5921bfba9516e",
  "version": 2,
  "size": 1281,
  "vsize": 486,
  "weight": 1944,
  "locktime": 0,
  "vin": [
    {
      "txid": "4403c9427ad5d4c3a4ca7dccb11108f4803b554a7f3fec973a2d99685fbdaadd",
      "vout": 0,
      "scriptSig": {
        "asm": "",
        "hex": ""
      },
      "txinwitness": [
        "2f13c070c4c4a10019d4814b3939befb87d59b376f645c8416a7e3a71c006b6decf0335476f9c4c34b68aea56bd00d6a47d7a6374060254d3431a8cf7182eac7"
      ],
      "sequence": 4294967295
    },
    {
      "txid": "1d351acbee5c41113ba7f115dac9d4d9efe4292e5e3ea6380bb82cea1b0de59c",
      "vout": 0,
      "scriptSig": {
        "asm": "",
        "hex": ""
      },
      "txinwitness": [
        "a65486322df7d3205fd81d3afcb39fef631edc855e1b15a666d9aa2f8998cb1fa094fbccdb7b6e1b44d7fc753e9ebdb78736b08bcfbde4f67a2a234f60b23b9e81",
        "0063057370656c6c4d080282a36776657273696f6e04627478a2647265667380646f75747382a1011903e6a100a2667469636b657269434841524d532d31396972656d61696e696e671a000182ba716170705f7075626c69635f696e70757473a283616e982018ae07189e1893181e188818ab188818231822182f18ba18ca0a18f518af18fe184302182518470e18a1188a18b8184b18fd182d184318d4183e18cc982018770b18c3183418d418301886183013181817182418d6121843185218d1182f1825182018a7183818e108183b18ac18a8183c189d189718301837f6836174982018ae07189e1893181e188818ab188818231822182f18ba18ca0a18f518af18fe184302182518470e18a1188a18b8184b18fd182d184318d4183e18cc982018770b18c3183418d418301886183013181817182418d6121843185218d1182f1825182018a7183818e108183b18ac18a8183c189d189718301837f699010418a41859184c1859181f18f9186f1618f3187718b218ea183e17189e1518931869189e18241831186a1858189f181918be031821184d188e18361846185118a6184f18e11718fb183b18de181f18ca18371846001893141891183d189118cc18471718aa182318e7187b18f018540618f0185e188118af1873186d18881847182618e6186f18661867183818e618c318c80a18b218f6186818440018b318d818b0183a188f18bc181e18b318fe18ad18d84d3f0116188b0e182c18a3181b0f18b0188c188918f818f1186c18ee18a0187618af18ca18bb18cc18e3189618dd18c9182e18a2188b184918290d181c18671880181e18b6181a187f18df181b18e4186a18de1894184a1845188818aa181f18df1855189918f91889184e186b18bb1846187418cf185618e4187e185218b618b2189d181a18fa18ef18a70218bc18d718f918f718a0188b18b7182018a518b518cd18b614187318aa184318a3184d0618e9189a188a185e0c18d218b618f9184718c11868189a182607187d1818184c182f189a189918941872188118a418d1186e184c18eb182118b818ed0e18ed18a118dd1838187318d6185718e418e8183e18db181e181c18f0182b0f18ba189c183918811849189418191894184b18960c18a71618f2182c185a18ee18b318bd18481856183218b018ab187018b61875186d68203e9999b13a977385f28b44948c997128f3a16c62f7dbe4664010f0061871a9ceac",
        "c13e9999b13a977385f28b44948c997128f3a16c62f7dbe4664010f0061871a9ce"
      ],
      "sequence": 4294967295
    }
  ],
  "vout": [
    {
      "value": 0.00001000,
      "n": 0,
      "scriptPubKey": {
        "asm": "1 8c821ceda66308fedf5283f5aaac2f3b1c17b529d983e2f1734794037beec335",
        "desc": "rawtr(8c821ceda66308fedf5283f5aaac2f3b1c17b529d983e2f1734794037beec335)#kppymsk9",
        "hex": "51208c821ceda66308fedf5283f5aaac2f3b1c17b529d983e2f1734794037beec335",
        "address": "tb1p3jppemdxvvy0ah6js0664tp08vwp0dffmxp79utng72qx7lwcv6s4qn0pv",
        "type": "witness_v1_taproot"
      }
    },
    {
      "value": 0.00001000,
      "n": 1,
      "scriptPubKey": {
        "asm": "1 6eb2ec4ab68e29176884e783dfd93bc42b9310f5ae47a202d0978988cebe1f87",
        "desc": "rawtr(6eb2ec4ab68e29176884e783dfd93bc42b9310f5ae47a202d0978988cebe1f87)#g8kkjtkk",
        "hex": "51206eb2ec4ab68e29176884e783dfd93bc42b9310f5ae47a202d0978988cebe1f87",
        "address": "tb1pd6ewcj4k3c53w6yyu7palkfmcs4exy844er6yqksj7yc3n47r7rsg8arkn",
        "type": "witness_v1_taproot"
      }
    },
    {
      "value": 0.00029686,
      "n": 2,
      "scriptPubKey": {
        "asm": "1 d2c2385fdea0d44dc25b67caf4aef4c711dea2a72b40a43cce34d82e601a78de",
        "desc": "rawtr(d2c2385fdea0d44dc25b67caf4aef4c711dea2a72b40a43cce34d82e601a78de)#9gzr9mv6",
        "hex": "5120d2c2385fdea0d44dc25b67caf4aef4c711dea2a72b40a43cce34d82e601a78de",
        "address": "tb1p6tprsh775r2ymsjmvl90fth5cugaag489dq2g0xwxnvzucq60r0q0hptc3",
        "type": "witness_v1_taproot"
      }
    }
  ]
}